{
  "contractName": "Jukebox",
  "abi": [
    {
      "constant": true,
      "inputs": [],
      "name": "owner",
      "outputs": [
        {
          "name": "",
          "type": "address"
        }
      ],
      "payable": false,
      "stateMutability": "view",
      "type": "function",
      "signature": "0x8da5cb5b"
    },
    {
      "inputs": [],
      "payable": false,
      "stateMutability": "nonpayable",
      "type": "constructor",
      "signature": "constructor"
    },
    {
      "anonymous": false,
      "inputs": [
        {
          "indexed": false,
          "name": "skippedSongId",
          "type": "uint256"
        }
      ],
      "name": "SongSkip",
      "type": "event",
      "signature": "0x6a923958cd2acf466e1be072810e57a0b38c64a5403cbc052249b3bd6baaf6bb"
    },
    {
      "anonymous": false,
      "inputs": [
        {
          "indexed": false,
          "name": "songId",
          "type": "uint256"
        }
      ],
      "name": "SongPrepend",
      "type": "event",
      "signature": "0x9b587522a6f125a5c4f72ccd493697fbe065b3f49b10d07cda9ef36af5ce31c0"
    },
    {
      "anonymous": false,
      "inputs": [
        {
          "indexed": false,
          "name": "songId",
          "type": "uint256"
        }
      ],
      "name": "SongAppend",
      "type": "event",
      "signature": "0xca5a16c485e3da0c505ae1c27b0223853a3cd369f42a06070c2665330912f402"
    },
    {
      "constant": true,
      "inputs": [],
      "name": "getQueueSize",
      "outputs": [
        {
          "name": "",
          "type": "uint256"
        }
      ],
      "payable": false,
      "stateMutability": "view",
      "type": "function",
      "signature": "0xce348c6f"
    },
    {
      "constant": true,
      "inputs": [
        {
          "name": "queueIndex",
          "type": "uint256"
        }
      ],
      "name": "getSongDataByQueueIndex",
      "outputs": [
        {
          "name": "songId",
          "type": "uint256"
        },
        {
          "name": "durationSecs",
          "type": "uint256"
        },
        {
          "name": "timestampSecs",
          "type": "uint256"
        }
      ],
      "payable": false,
      "stateMutability": "view",
      "type": "function",
      "signature": "0x6797a5c3"
    },
    {
      "constant": true,
      "inputs": [
        {
          "name": "songId",
          "type": "uint256"
        }
      ],
      "name": "getSongDataBySongId",
      "outputs": [
        {
          "name": "id",
          "type": "uint256"
        },
        {
          "name": "durationSecs",
          "type": "uint256"
        }
      ],
      "payable": false,
      "stateMutability": "view",
      "type": "function",
      "signature": "0x61b44355"
    },
    {
      "constant": true,
      "inputs": [
        {
          "name": "timestampSecs",
          "type": "uint256"
        }
      ],
      "name": "getCurrentSongQueueIndex",
      "outputs": [
        {
          "name": "songQueueIndex",
          "type": "uint256"
        }
      ],
      "payable": false,
      "stateMutability": "view",
      "type": "function",
      "signature": "0x579562aa"
    },
    {
      "constant": false,
      "inputs": [
        {
          "name": "songId",
          "type": "uint256"
        },
        {
          "name": "timestampSecs",
          "type": "uint256"
        }
      ],
      "name": "appendSongToQueue",
      "outputs": [],
      "payable": true,
      "stateMutability": "payable",
      "type": "function",
      "signature": "0x2c4bc08f"
    }
  ],
  "bytecode": "0x608060405234801561001057600080fd5b50336000806101000a81548173ffffffffffffffffffffffffffffffffffffffff021916908373ffffffffffffffffffffffffffffffffffffffff16021790555060408051908101604052806000815260200160788152506002600060038110151561007857fe5b6002020160008201518160000155602082015181600101559050506040805190810160405280600181526020016078815250600260016003811015156100ba57fe5b60020201600082015181600001556020820151816001015590505060408051908101604052806002815260200160788152506002806003811015156100fb57fe5b6002020160008201518160000155602082015181600101559050506003600181905550610a0a8061012d6000396000f3fe608060405260043610610078576000357c0100000000000000000000000000000000000000000000000000000000900463ffffffff1680632c4bc08f1461007d578063579562aa146100b557806361b44355146101045780636797a5c31461015a5780638da5cb5b146101b7578063ce348c6f1461020e575b600080fd5b6100b36004803603604081101561009357600080fd5b810190808035906020019092919080359060200190929190505050610239565b005b3480156100c157600080fd5b506100ee600480360360208110156100d857600080fd5b81019080803590602001909291905050506103ee565b6040518082815260200191505060405180910390f35b34801561011057600080fd5b5061013d6004803603602081101561012757600080fd5b8101908080359060200190929190505050610528565b604051808381526020018281526020019250505060405180910390f35b34801561016657600080fd5b506101936004803603602081101561017d57600080fd5b8101908080359060200190929190505050610629565b60405180848152602001838152602001828152602001935050505060405180910390f35b3480156101c357600080fd5b506101cc610765565b604051808273ffffffffffffffffffffffffffffffffffffffff1673ffffffffffffffffffffffffffffffffffffffff16815260200191505060405180910390f35b34801561021a57600080fd5b5061022361078a565b6040518082815260200191505060405180910390f35b61024281610797565b600560088054905010151561030b576040517f08c379a00000000000000000000000000000000000000000000000000000000081526004018080602001828103825260478152602001807f536f6e672071756575652069732066756c6c2e205761697420666f722074686581526020017f2063757272656e7420736f6e6720746f2066696e697368206f7220706179207481526020017f6f20736b69702e0000000000000000000000000000000000000000000000000081525060600191505060405180910390fd5b610313610919565b60008090505b6001548110156103715783826000015114156103645760028160038110151561033e57fe5b600202016040805190810160405290816000820154815260200160018201548152505091505b8080600101915050610319565b50600880548091906001016103869190610933565b50604080519081016040528082815260200183815250600880805490508154811015156103af57fe5b90600052602060002090600302016000820151816000016000820151816000015560208201518160010155505060208201518160020155905050505050565b6000806000905060008090505b6008805490508110156104aa57610410610965565b60088281548110151561041f57fe5b9060005260206000209060030201604080519081016040529081600082016040805190810160405290816000820154815260200160018201548152505081526020016002820154815250509050828160000151602001518260200151010185101561048f57819350505050610523565b806000015160200151830192505080806001019150506103fb565b5060001515610521576040517f08c379a000000000000000000000000000000000000000000000000000000000815260040180806020018281038252601d8152602001807f4e6f20736f6e672069732063757272656e746c7920706c6179696e672e00000081525060200191505060405180910390fd5b505b919050565b60008060008090505b6001548110156105ac57610543610919565b60028260038110151561055257fe5b60020201604080519081016040529081600082015481526020016001820154815250509050848160000151141561059e5780600001519350806020015192508383935093505050610624565b508080600101915050610531565b5060001515610623576040517f08c379a00000000000000000000000000000000000000000000000000000000081526004018080602001828103825260148152602001807f536f6e672064617461206e6f7420666f756e642e00000000000000000000000081525060200191505060405180910390fd5b5b915091565b6000806000600160088054905003841015156106d3576040517f08c379a00000000000000000000000000000000000000000000000000000000081526004018080602001828103825260348152602001807f536f6e6720717565756520697320736d616c6c6572207468616e20746865207081526020017f726f766964656420717565756520696e6465782e00000000000000000000000081525060400191505060405180910390fd5b6106db610965565b6008858154811015156106ea57fe5b90600052602060002090600302016040805190810160405290816000820160408051908101604052908160008201548152602001600182015481525050815260200160028201548152505090508060000151600001519350806000015160200151925080602001519150838383935093509350509193909250565b6000809054906101000a900473ffffffffffffffffffffffffffffffffffffffff1681565b6000600880549050905090565b6000809050600080905060008090505b600880549050811015610913576107bc610965565b6008828154811015156107cb57fe5b90600052602060002090600302016040805190810160405290816000820160408051908101604052908160008201548152602001600182015481525050815260200160028201548152505090508281600001516020015182602001510101851015156108f8578380600101945050600884830181548110151561084a57fe5b906000526020600020906003020160088381548110151561086757fe5b90600052602060002090600302016000820181600001600082015481600001556001820154816001015550506002820154816002015590505060088483018154811015156108b157fe5b90600052602060002090600302016000808201600080820160009055600182016000905550506002820160009055505060088054809190600190036108f69190610933565b505b806000015160200151830192505080806001019150506107a7565b50505050565b604080519081016040528060008152602001600081525090565b8154818355818111156109605760030281600302836000526020600020918201910161095f9190610986565b5b505050565b6060604051908101604052806109796109c4565b8152602001600081525090565b6109c191905b808211156109bd5760008082016000808201600090556001820160009055505060028201600090555060030161098c565b5090565b90565b60408051908101604052806000815260200160008152509056fea165627a7a723058207864b583218791e6957a93fb5ffbbdcf6ca5b1fe1b2efce140f61a1f895068dd0029",
  "source": "pragma solidity ^0.5.0;\n\nimport \"./Owned.sol\";\n\ncontract Jukebox is Owned {\n  // --- Contract properties ------------------------------------------------ //\n\n  // --- Data structures --- //\n\n  // Song type\n  struct Song {\n    uint id;\n    uint durationSecs;\n  }\n\n  // Queued song type\n  struct QueuedSong {\n    Song song; // The song type\n    uint timestampSecs; // Unix timestamp when it was queued.\n  }\n\n  // --- State --- //\n\n  // Song state\n  uint numSongs;\n  Song[3] songsAvailable;\n\n  // Songs currently queued\n  QueuedSong[] queue;\n\n  // --- Events --- //\n\n  event SongSkip(uint skippedSongId);\n  event SongPrepend(uint songId);\n  event SongAppend(uint songId);\n\n  // --- Constructor -------------------------------------------------------- //\n\n  constructor() public {\n    songsAvailable[0] = Song(0, 120);\n    songsAvailable[1] = Song(1, 120);\n    songsAvailable[2] = Song(2, 120);\n    numSongs = 3;\n  }\n\n  // --- Business logic ----------------------------------------------------- //\n\n  // --- Getters --- //\n\n  /** Get the current size of the song queue. */\n  function getQueueSize() public view returns (uint) {\n    return queue.length;\n  }\n\n  /** Return data about a song currently in the queue. */\n  function getSongDataByQueueIndex(uint queueIndex)\n    public\n    view\n    returns\n  (uint songId, uint durationSecs, uint timestampSecs) {\n    require(queueIndex < queue.length - 1, \"Song queue is smaller than the provided queue index.\");\n    QueuedSong memory qsong = queue[queueIndex];\n\n    // Extract data from state\n    songId = qsong.song.id;\n    durationSecs = qsong.song.durationSecs;\n    timestampSecs = qsong.timestampSecs;\n\n    return (songId, durationSecs, timestampSecs);\n  }\n\n  /** Return data about a song from its unique ID. */\n  function getSongDataBySongId(uint songId)\n    public\n    view\n    returns\n  (uint id, uint durationSecs) {\n    for (uint i = 0; i < numSongs; i++) {\n      Song memory song = songsAvailable[i];\n      if (song.id == songId) {\n        id = song.id;\n        durationSecs = song.durationSecs;\n        return (id, durationSecs);\n      }\n    }\n\n    require(false, \"Song data not found.\");\n  }\n\n  /** Get the queue index of the currently playing song. */\n  function getCurrentSongQueueIndex(uint timestampSecs) public view returns (uint songQueueIndex) {\n    uint prevDurationSecs = 0;\n\n    // Find the currently playing song by comparing the given timestamp with\n    // queued song timestamps/durations.\n    for (uint i = 0; i < queue.length; i++) {\n      QueuedSong memory qsong = queue[i];\n      if (timestampSecs < qsong.timestampSecs + qsong.song.durationSecs + prevDurationSecs) {\n        return i;\n      }\n      prevDurationSecs += qsong.song.durationSecs;\n    }\n\n    require(false, \"No song is currently playing.\");\n  }\n\n  // --- State updates --- //\n\n  /** Prepend a song to the jukebox playlist. */\n  // function prependSongToQueue(uint songId, uint timestampSecs) public {\n  //   reconcileSongQueue(timestampSecs);\n\n  //   require(queueSize < 5, \"Song queue is full. Wait for the current song to finish or pay to skip.\");\n\n  //   if (queueSize > 0) {\n  //     for (uint i = queueSize - 1; i >= 0; i--) {\n  //       queue[i] = queue[i - 1];\n  //     }\n  //   }\n\n  //   Song memory song = songsAvailable[songId];\n  //   QueuedSong memory qsong = QueuedSong(song, timestampSecs);\n  //   queue[0] = qsong;\n\n  //   queueSize++;\n  // }\n\n  /** Append a song to the jukebox playlist. */\n  function appendSongToQueue(uint songId, uint timestampSecs) public payable {\n    reconcileSongQueue(timestampSecs);\n\n    require(queue.length < 5, \"Song queue is full. Wait for the current song to finish or pay to skip.\");\n\n    // Get the song\n    Song memory song;\n    for (uint i = 0; i < numSongs; i++) {\n      if (song.id == songId) {\n        song = songsAvailable[i];\n      }\n    }\n\n    // Queue the song\n    queue.length++;\n    queue[queue.length] = QueuedSong(song, timestampSecs);\n  }\n\n  /** Skip the currently playing song. */\n  // function skipSong() public {}\n\n  /** Remove currently playing song from the queue. */\n  function reconcileSongQueue(uint timestampSecs) private {\n    uint numSongsRemoved = 0;\n    uint prevDurationSecs = 0;\n\n    // Find queued songs that are expired (already played).\n    for (uint i = 0; i < queue.length; i++) {\n      QueuedSong memory qsong = queue[i];\n      if (timestampSecs >= qsong.timestampSecs + qsong.song.durationSecs + prevDurationSecs) {\n        numSongsRemoved++;\n        queue[i] = queue[i + numSongsRemoved];\n        delete queue[i + numSongsRemoved];\n        queue.length--;\n      }\n\n      prevDurationSecs += qsong.song.durationSecs;\n    }\n  }\n}\n",
  "sourcePath": "/Users/ian/dev/jukeblocks/contracts/Jukebox.sol",
  "compiler": {
    "name": "solc",
    "version": "0.5.0+commit.1d4f565a.Emscripten.clang"
  },
  "schemaVersion": "3.0.1",
  "updatedAt": "2019-02-16T01:28:11.613Z",
  "devdoc": {
    "methods": {}
  },
  "userdoc": {
    "methods": {
      "appendSongToQueue(uint256,uint256)": {
        "notice": "Append a song to the jukebox playlist. "
      },
      "getCurrentSongQueueIndex(uint256)": {
        "notice": "Get the queue index of the currently playing song. "
      },
      "getQueueSize()": {
        "notice": "Get the current size of the song queue. "
      },
      "getSongDataByQueueIndex(uint256)": {
        "notice": "Return data about a song currently in the queue. "
      },
      "getSongDataBySongId(uint256)": {
        "notice": "Return data about a song from its unique ID. "
      }
    }
  }
}