{
  "contractName": "Jukebox",
  "abi": [
    {
      "constant": true,
      "inputs": [],
      "name": "owner",
      "outputs": [
        {
          "name": "",
          "type": "address"
        }
      ],
      "payable": false,
      "stateMutability": "view",
      "type": "function",
      "signature": "0x8da5cb5b"
    },
    {
      "inputs": [],
      "payable": false,
      "stateMutability": "nonpayable",
      "type": "constructor",
      "signature": "constructor"
    },
    {
      "anonymous": false,
      "inputs": [
        {
          "indexed": false,
          "name": "timestamp",
          "type": "uint256"
        },
        {
          "indexed": false,
          "name": "duration",
          "type": "uint256"
        }
      ],
      "name": "Test",
      "type": "event",
      "signature": "0x91916a5e2c96453ddf6b585497262675140eb9f7a774095fb003d93e6dc69216"
    },
    {
      "anonymous": false,
      "inputs": [
        {
          "indexed": false,
          "name": "skippedSongId",
          "type": "uint256"
        }
      ],
      "name": "SongSkip",
      "type": "event",
      "signature": "0x6a923958cd2acf466e1be072810e57a0b38c64a5403cbc052249b3bd6baaf6bb"
    },
    {
      "anonymous": false,
      "inputs": [
        {
          "indexed": false,
          "name": "songId",
          "type": "uint256"
        }
      ],
      "name": "SongPrepend",
      "type": "event",
      "signature": "0x9b587522a6f125a5c4f72ccd493697fbe065b3f49b10d07cda9ef36af5ce31c0"
    },
    {
      "anonymous": false,
      "inputs": [
        {
          "indexed": false,
          "name": "songId",
          "type": "uint256"
        }
      ],
      "name": "SongAppend",
      "type": "event",
      "signature": "0xca5a16c485e3da0c505ae1c27b0223853a3cd369f42a06070c2665330912f402"
    },
    {
      "constant": true,
      "inputs": [],
      "name": "getQueueSize",
      "outputs": [
        {
          "name": "",
          "type": "uint256"
        }
      ],
      "payable": false,
      "stateMutability": "view",
      "type": "function",
      "signature": "0xce348c6f"
    },
    {
      "constant": true,
      "inputs": [
        {
          "name": "queueIndex",
          "type": "uint256"
        }
      ],
      "name": "getSongDataByQueueIndex",
      "outputs": [
        {
          "name": "songId",
          "type": "uint256"
        },
        {
          "name": "durationSecs",
          "type": "uint256"
        },
        {
          "name": "timestampSecs",
          "type": "uint256"
        }
      ],
      "payable": false,
      "stateMutability": "view",
      "type": "function",
      "signature": "0x6797a5c3"
    },
    {
      "constant": true,
      "inputs": [
        {
          "name": "songId",
          "type": "uint256"
        }
      ],
      "name": "getSongDataBySongId",
      "outputs": [
        {
          "name": "id",
          "type": "uint256"
        },
        {
          "name": "durationSecs",
          "type": "uint256"
        }
      ],
      "payable": false,
      "stateMutability": "view",
      "type": "function",
      "signature": "0x61b44355"
    },
    {
      "constant": true,
      "inputs": [
        {
          "name": "timestampSecs",
          "type": "uint256"
        }
      ],
      "name": "getCurrentSongQueueIndex",
      "outputs": [
        {
          "name": "songQueueIndex",
          "type": "uint256"
        }
      ],
      "payable": false,
      "stateMutability": "view",
      "type": "function",
      "signature": "0x579562aa"
    },
    {
      "constant": false,
      "inputs": [
        {
          "name": "songId",
          "type": "uint256"
        },
        {
          "name": "timestampSecs",
          "type": "uint256"
        }
      ],
      "name": "appendSongToQueue",
      "outputs": [],
      "payable": false,
      "stateMutability": "nonpayable",
      "type": "function",
      "signature": "0x2c4bc08f"
    }
  ],
  "bytecode": "0x608060405234801561001057600080fd5b50336000806101000a81548173ffffffffffffffffffffffffffffffffffffffff021916908373ffffffffffffffffffffffffffffffffffffffff16021790555060606040519081016040528060011515815260200160008152602001600a8152506001600060038110151561008257fe5b6003020160008201518160000160006101000a81548160ff02191690831515021790555060208201518160010155604082015181600201559050506060604051908101604052806001151581526020016001815260200160f08152506001806003811015156100ed57fe5b6003020160008201518160000160006101000a81548160ff0219169083151502179055506020820151816001015560408201518160020155905050606060405190810160405280600115158152602001600281526020016102a88152506001600260038110151561015a57fe5b6003020160008201518160000160006101000a81548160ff0219169083151502179055506020820151816001015560408201518160020155905050610c4f806101a46000396000f3fe608060405260043610610078576000357c0100000000000000000000000000000000000000000000000000000000900463ffffffff1680632c4bc08f1461007d578063579562aa146100c257806361b44355146101115780636797a5c3146101675780638da5cb5b146101c4578063ce348c6f1461021b575b600080fd5b34801561008957600080fd5b506100c0600480360360408110156100a057600080fd5b810190808035906020019092919080359060200190929190505050610246565b005b3480156100ce57600080fd5b506100fb600480360360208110156100e557600080fd5b8101908080359060200190929190505050610463565b6040518082815260200191505060405180910390f35b34801561011d57600080fd5b5061014a6004803603602081101561013457600080fd5b81019080803590602001909291905050506105d5565b604051808381526020018281526020019250505060405180910390f35b34801561017357600080fd5b506101a06004803603602081101561018a57600080fd5b81019080803590602001909291905050506106f1565b60405180848152602001838152602001828152602001935050505060405180910390f35b3480156101d057600080fd5b506101d9610862565b604051808273ffffffffffffffffffffffffffffffffffffffff1673ffffffffffffffffffffffffffffffffffffffff16815260200191505060405180910390f35b34801561022757600080fd5b50610230610887565b6040518082815260200191505060405180910390f35b61024f81610894565b6005600b80549050101515610318576040517f08c379a00000000000000000000000000000000000000000000000000000000081526004018080602001828103825260478152602001807f536f6e672071756575652069732066756c6c2e205761697420666f722074686581526020017f2063757272656e7420736f6e6720746f2066696e697368206f7220706179207481526020017f6f20736b69702e0000000000000000000000000000000000000000000000000081525060600191505060405180910390fd5b610320610b27565b60008090505b60038110156103a557610337610b27565b60018260038110151561034657fe5b60030201606060405190810160405290816000820160009054906101000a900460ff161515151581526020016001820154815260200160028201548152505090508481602001511415610397578092505b508080600101915050610326565b50600b606060405190810160405280600115158152602001838152602001848152509080600181540180825580915050906001820390600052602060002090600502016000909192909190915060008201518160000160006101000a81548160ff02191690831515021790555060208201518160010160008201518160000160006101000a81548160ff0219169083151502179055506020820151816001015560408201518160020155505060408201518160040155505050505050565b6000806000905060008090505b600b8054905081101561055757610485610b4b565b600b8281548110151561049457fe5b9060005260206000209060050201606060405190810160405290816000820160009054906101000a900460ff1615151515815260200160018201606060405190810160405290816000820160009054906101000a900460ff161515151581526020016001820154815260200160028201548152505081526020016004820154815250509050828160200151604001518260400151010185101561053c578193505050506105d0565b80602001516040015183019250508080600101915050610470565b50600015156105ce576040517f08c379a000000000000000000000000000000000000000000000000000000000815260040180806020018281038252601d8152602001807f4e6f20736f6e672069732063757272656e746c7920706c6179696e672e00000081525060200191505060405180910390fd5b505b919050565b60008060008090505b6003811015610674576105ef610b27565b6001826003811015156105fe57fe5b60030201606060405190810160405290816000820160009054906101000a900460ff16151515158152602001600182015481526020016002820154815250509050848160200151141561066657806020015193508060400151925083839350935050506106ec565b5080806001019150506105de565b50600015156106eb576040517f08c379a00000000000000000000000000000000000000000000000000000000081526004018080602001828103825260148152602001807f536f6e672064617461206e6f7420666f756e642e00000000000000000000000081525060200191505060405180910390fd5b5b915091565b6000806000600b8054905084101515610798576040517f08c379a00000000000000000000000000000000000000000000000000000000081526004018080602001828103825260348152602001807f536f6e6720717565756520697320736d616c6c6572207468616e20746865207081526020017f726f766964656420717565756520696e6465782e00000000000000000000000081525060400191505060405180910390fd5b6107a0610b4b565b600b858154811015156107af57fe5b9060005260206000209060050201606060405190810160405290816000820160009054906101000a900460ff1615151515815260200160018201606060405190810160405290816000820160009054906101000a900460ff1615151515815260200160018201548152602001600282015481525050815260200160048201548152505090508060200151602001519350806020015160400151925080604001519150838383935093509350509193909250565b6000809054906101000a900473ffffffffffffffffffffffffffffffffffffffff1681565b6000600b80549050905090565b600080905060008090505b600b80549050811015610a16576108b4610b4b565b600b828154811015156108c357fe5b9060005260206000209060050201606060405190810160405290816000820160009054906101000a900460ff1615151515815260200160018201606060405190810160405290816000820160009054906101000a900460ff16151515158152602001600182015481526020016002820154815250508152602001600482015481525050905082816020015160400151826040015101018410156109fb57600a819080600181540180825580915050906001820390600052602060002090600502016000909192909190915060008201518160000160006101000a81548160ff02191690831515021790555060208201518160010160008201518160000160006101000a81548160ff02191690831515021790555060208201518160010155604082015181600201555050604082015181600401555050505b8060200151604001518301925050808060010191505061089f565b50600b6000610a259190610b75565b60008090505b600a80549050811015610b1457600b600a82815481101515610a4957fe5b9060005260206000209060050201908060018154018082558091505090600182039060005260206000209060050201600090919290919091506000820160009054906101000a900460ff168160000160006101000a81548160ff02191690831515021790555060018201816001016000820160009054906101000a900460ff168160000160006101000a81548160ff02191690831515021790555060018201548160010155600282015481600201555050600482015481600401555050508080600101915050610a2b565b50600a6000610b239190610b75565b5050565b60606040519081016040528060001515815260200160008152602001600081525090565b60a060405190810160405280600015158152602001610b68610b99565b8152602001600081525090565b5080546000825560050290600052602060002090810190610b969190610bbd565b50565b60606040519081016040528060001515815260200160008152602001600081525090565b610c2091905b80821115610c1c57600080820160006101000a81549060ff021916905560018201600080820160006101000a81549060ff0219169055600182016000905560028201600090555050600482016000905550600501610bc3565b5090565b9056fea165627a7a72305820cf474573dcfa2b7fcf24591c6bf1ece77d3c1cf199e2b32353d366d0ba9da1840029",
  "source": "pragma solidity ^0.5.0;\n\nimport \"./Owned.sol\";\n\ncontract Jukebox is Owned {\n  // --- Contract properties ------------------------------------------------ //\n\n  event Test(uint timestamp, uint duration);\n\n  // --- Data structures --- //\n\n  // Song type\n  struct Song {\n    bool initialized;\n    uint id;\n    uint durationSecs;\n  }\n\n  // Queued song type\n  struct QueuedSong {\n    bool initialized;\n    Song song; // The song type\n    uint timestampSecs; // Unix timestamp when it was queued.\n  }\n\n  // --- State --- //\n\n  // Song state\n  Song[3] songsAvailable;\n\n  // Songs currently queued\n  QueuedSong[] nextQueue;\n  QueuedSong[] queue;\n\n  // --- Events --- //\n\n  event SongSkip(uint skippedSongId);\n  event SongPrepend(uint songId);\n  event SongAppend(uint songId);\n\n  // --- Constructor -------------------------------------------------------- //\n\n  constructor() public {\n    songsAvailable[0] = Song(true, 0, 10);\n    songsAvailable[1] = Song(true, 1, 240);\n    songsAvailable[2] = Song(true, 2, 680);\n  }\n\n  // --- Business logic ----------------------------------------------------- //\n\n  // --- Getters --- //\n\n  /** Get the current size of the song queue. */\n  function getQueueSize() public view returns (uint) {\n    return queue.length;\n  }\n\n  /** Return data about a song currently in the queue. */\n  function getSongDataByQueueIndex(uint queueIndex)\n    public\n    view\n    returns\n  (uint songId, uint durationSecs, uint timestampSecs) {\n    require(queueIndex < queue.length, \"Song queue is smaller than the provided queue index.\");\n    QueuedSong memory qsong = queue[queueIndex];\n\n    // Extract data from state\n    songId = qsong.song.id;\n    durationSecs = qsong.song.durationSecs;\n    timestampSecs = qsong.timestampSecs;\n\n    return (songId, durationSecs, timestampSecs);\n  }\n\n  /** Return data about a song from its unique ID. */\n  function getSongDataBySongId(uint songId)\n    public\n    view\n    returns\n  (uint id, uint durationSecs) {\n    for (uint i = 0; i < songsAvailable.length; i++) {\n      Song memory song = songsAvailable[i];\n      if (song.id == songId) {\n        id = song.id;\n        durationSecs = song.durationSecs;\n        return (id, durationSecs);\n      }\n    }\n\n    require(false, \"Song data not found.\");\n  }\n\n  /** Get the queue index of the currently playing song. */\n  function getCurrentSongQueueIndex(uint timestampSecs) public view returns (uint songQueueIndex) {\n    uint prevDurationSecs = 0;\n\n    // Find the currently playing song by comparing the given timestamp with\n    // queued song timestamps/durations.\n    for (uint i = 0; i < queue.length; i++) {\n      QueuedSong memory qsong = queue[i];\n      if (timestampSecs < qsong.timestampSecs + qsong.song.durationSecs + prevDurationSecs) {\n        return i;\n      }\n      prevDurationSecs += qsong.song.durationSecs;\n    }\n\n    require(false, \"No song is currently playing.\");\n  }\n\n  // --- State updates --- //\n\n  /** Prepend a song to the jukebox playlist. */\n  // function prependSongToQueue(uint songId, uint timestampSecs) public {\n  //   reconcileSongQueue(timestampSecs);\n\n  //   require(queueSize < 5, \"Song queue is full. Wait for the current song to finish or pay to skip.\");\n\n  //   if (queueSize > 0) {\n  //     for (uint i = queueSize - 1; i >= 0; i--) {\n  //       queue[i] = queue[i - 1];\n  //     }\n  //   }\n\n  //   Song memory song = songsAvailable[songId];\n  //   QueuedSong memory qsong = QueuedSong(song, timestampSecs);\n  //   queue[0] = qsong;\n\n  //   queueSize++;\n  // }\n\n  /** Append a song to the jukebox playlist. */\n  function appendSongToQueue(uint songId, uint timestampSecs) public {\n    reconcileSongQueue(timestampSecs);\n\n    require(queue.length < 5, \"Song queue is full. Wait for the current song to finish or pay to skip.\");\n\n    // Get the song\n    Song memory song;\n    for (uint i = 0; i < songsAvailable.length; i++) {\n      Song memory checkSong = songsAvailable[i];\n      if (checkSong.id == songId) {\n        song = checkSong;\n      }\n    }\n\n    // Queue the song\n    queue.push(QueuedSong(true, song, timestampSecs));\n  }\n\n  /** Skip the currently playing song. */\n  // function skipSong() public {}\n\n  /** Remove currently playing song from the queue. */\n  function reconcileSongQueue(uint timestampSecs) private {\n    uint prevDurationSecs = 0;\n\n    // Find queued songs that are expired (already played).\n    for (uint i = 0; i < queue.length; i++) {\n      QueuedSong memory qsong = queue[i];\n\n      if (timestampSecs < qsong.timestampSecs + qsong.song.durationSecs + prevDurationSecs) {\n        nextQueue.push(qsong);\n      }\n\n      prevDurationSecs += qsong.song.durationSecs;\n    }\n\n    delete queue;\n\n    for (uint i = 0; i < nextQueue.length; i++) {\n      queue.push(nextQueue[i]);\n    }\n\n    delete nextQueue;\n  }\n}\n",
  "sourcePath": "/Users/ian/dev/jukeblocks/contracts/Jukebox.sol",
  "compiler": {
    "name": "solc",
    "version": "0.5.0+commit.1d4f565a.Emscripten.clang"
  },
  "schemaVersion": "3.0.1",
  "updatedAt": "2019-02-16T17:24:09.688Z",
  "devdoc": {
    "methods": {}
  },
  "userdoc": {
    "methods": {
      "appendSongToQueue(uint256,uint256)": {
        "notice": "Append a song to the jukebox playlist. "
      },
      "getCurrentSongQueueIndex(uint256)": {
        "notice": "Get the queue index of the currently playing song. "
      },
      "getQueueSize()": {
        "notice": "Get the current size of the song queue. "
      },
      "getSongDataByQueueIndex(uint256)": {
        "notice": "Return data about a song currently in the queue. "
      },
      "getSongDataBySongId(uint256)": {
        "notice": "Return data about a song from its unique ID. "
      }
    }
  }
}