{
  "contractName": "Jukebox",
  "abi": [
    {
      "constant": true,
      "inputs": [],
      "name": "owner",
      "outputs": [
        {
          "name": "",
          "type": "address"
        }
      ],
      "payable": false,
      "stateMutability": "view",
      "type": "function",
      "signature": "0x8da5cb5b"
    },
    {
      "inputs": [],
      "payable": false,
      "stateMutability": "nonpayable",
      "type": "constructor",
      "signature": "constructor"
    },
    {
      "anonymous": false,
      "inputs": [
        {
          "indexed": false,
          "name": "songId",
          "type": "uint256"
        },
        {
          "indexed": false,
          "name": "durationSecs",
          "type": "uint256"
        },
        {
          "indexed": false,
          "name": "timestampSecs",
          "type": "uint256"
        }
      ],
      "name": "Append",
      "type": "event",
      "signature": "0x05f115181a9a9da1457669b448c7a2f4eef641356115ef4e6055f46462464361"
    },
    {
      "anonymous": false,
      "inputs": [],
      "name": "Clear",
      "type": "event",
      "signature": "0xa538bd9092da5ceb859b5d03c8968eabd712937deb995166f2e2578dae2bed1c"
    },
    {
      "constant": true,
      "inputs": [],
      "name": "getQueueSize",
      "outputs": [
        {
          "name": "",
          "type": "uint256"
        }
      ],
      "payable": false,
      "stateMutability": "view",
      "type": "function",
      "signature": "0xce348c6f"
    },
    {
      "constant": true,
      "inputs": [
        {
          "name": "queueIndex",
          "type": "uint256"
        }
      ],
      "name": "getSongDataByQueueIndex",
      "outputs": [
        {
          "name": "songId",
          "type": "uint256"
        },
        {
          "name": "durationSecs",
          "type": "uint256"
        },
        {
          "name": "timestampSecs",
          "type": "uint256"
        }
      ],
      "payable": false,
      "stateMutability": "view",
      "type": "function",
      "signature": "0x6797a5c3"
    },
    {
      "constant": true,
      "inputs": [
        {
          "name": "songId",
          "type": "uint256"
        }
      ],
      "name": "getSongDataBySongId",
      "outputs": [
        {
          "name": "id",
          "type": "uint256"
        },
        {
          "name": "durationSecs",
          "type": "uint256"
        }
      ],
      "payable": false,
      "stateMutability": "view",
      "type": "function",
      "signature": "0x61b44355"
    },
    {
      "constant": true,
      "inputs": [
        {
          "name": "timestampSecs",
          "type": "uint256"
        }
      ],
      "name": "getCurrentSongQueueIndex",
      "outputs": [
        {
          "name": "",
          "type": "uint256"
        }
      ],
      "payable": false,
      "stateMutability": "view",
      "type": "function",
      "signature": "0x579562aa"
    },
    {
      "constant": false,
      "inputs": [
        {
          "name": "songId",
          "type": "uint256"
        },
        {
          "name": "timestampSecs",
          "type": "uint256"
        }
      ],
      "name": "appendSongToQueue",
      "outputs": [],
      "payable": true,
      "stateMutability": "payable",
      "type": "function",
      "signature": "0x2c4bc08f"
    },
    {
      "constant": false,
      "inputs": [],
      "name": "clearSongQueue",
      "outputs": [],
      "payable": true,
      "stateMutability": "payable",
      "type": "function",
      "signature": "0xa2abedf3"
    }
  ],
  "bytecode": "0x608060405266470de4df820000600155668e1bc9bf04000060025534801561002657600080fd5b50336000806101000a81548173ffffffffffffffffffffffffffffffffffffffff021916908373ffffffffffffffffffffffffffffffffffffffff1602179055506060604051908101604052806001151581526020016000815260200160f28152506003600060048110151561009857fe5b6003020160008201518160000160006101000a81548160ff0219169083151502179055506020820151816001015560408201518160020155905050606060405190810160405280600115158152602001600181526020016101068152506003600160048110151561010557fe5b6003020160008201518160000160006101000a81548160ff02191690831515021790555060208201518160010155604082015181600201559050506060604051908101604052806001151581526020016002815260200160a88152506003600260048110151561017157fe5b6003020160008201518160000160006101000a81548160ff0219169083151502179055506020820151816001015560408201518160020155905050606060405190810160405280600115158152602001600381526020016101518152506003806004811015156101dd57fe5b6003020160008201518160000160006101000a81548160ff0219169083151502179055506020820151816001015560408201518160020155905050610d8b806102276000396000f3fe608060405260043610610083576000357c0100000000000000000000000000000000000000000000000000000000900463ffffffff1680632c4bc08f14610088578063579562aa146100c057806361b443551461010f5780636797a5c3146101655780638da5cb5b146101c2578063a2abedf314610219578063ce348c6f14610223575b600080fd5b6100be6004803603604081101561009e57600080fd5b81019080803590602001909291908035906020019092919050505061024e565b005b3480156100cc57600080fd5b506100f9600480360360208110156100e357600080fd5b81019080803590602001909291905050506104c3565b6040518082815260200191505060405180910390f35b34801561011b57600080fd5b506101486004803603602081101561013257600080fd5b8101908080359060200190929190505050610635565b604051808381526020018281526020019250505060405180910390f35b34801561017157600080fd5b5061019e6004803603602081101561018857600080fd5b8101908080359060200190929190505050610751565b60405180848152602001838152602001828152602001935050505060405180910390f35b3480156101ce57600080fd5b506101d76108c2565b604051808273ffffffffffffffffffffffffffffffffffffffff1673ffffffffffffffffffffffffffffffffffffffff16815260200191505060405180910390f35b6102216108e7565b005b34801561022f57600080fd5b506102386109a0565b6040518082815260200191505060405180910390f35b6000610259826109ad565b90506005601080549050101515610324576040517f08c379a00000000000000000000000000000000000000000000000000000000081526004018080602001828103825260478152602001807f536f6e672071756575652069732066756c6c2e205761697420666f722074686581526020017f2063757272656e7420736f6e6720746f2066696e697368206f7220706179207481526020017f6f20736b69702e0000000000000000000000000000000000000000000000000081525060600191505060405180910390fd5b61032c610c63565b60008090505b60048110156103b157610343610c63565b60038260048110151561035257fe5b60030201606060405190810160405290816000820160009054906101000a900460ff1615151515815260200160018201548152602001600282015481525050905085816020015114156103a3578092505b508080600101915050610332565b5060106060604051908101604052806001151581526020018381526020018486018152509080600181540180825580915050906001820390600052602060002090600502016000909192909190915060008201518160000160006101000a81548160ff02191690831515021790555060208201518160010160008201518160000160006101000a81548160ff02191690831515021790555060208201518160010155604082015181600201555050604082015181600401555050507f05f115181a9a9da1457669b448c7a2f4eef641356115ef4e6055f464624643618160200151826040015184860160405180848152602001838152602001828152602001935050505060405180910390a150505050565b6000806000905060008090505b6010805490508110156105b7576104e5610c87565b6010828154811015156104f457fe5b9060005260206000209060050201606060405190810160405290816000820160009054906101000a900460ff1615151515815260200160018201606060405190810160405290816000820160009054906101000a900460ff161515151581526020016001820154815260200160028201548152505081526020016004820154815250509050828160200151604001518260400151010185101561059c57819350505050610630565b806020015160400151830192505080806001019150506104d0565b506000151561062e576040517f08c379a000000000000000000000000000000000000000000000000000000000815260040180806020018281038252601d8152602001807f4e6f20736f6e672069732063757272656e746c7920706c6179696e672e00000081525060200191505060405180910390fd5b505b919050565b60008060008090505b60048110156106d45761064f610c63565b60038260048110151561065e57fe5b60030201606060405190810160405290816000820160009054906101000a900460ff1615151515815260200160018201548152602001600282015481525050905084816020015114156106c6578060200151935080604001519250838393509350505061074c565b50808060010191505061063e565b506000151561074b576040517f08c379a00000000000000000000000000000000000000000000000000000000081526004018080602001828103825260148152602001807f536f6e672064617461206e6f7420666f756e642e00000000000000000000000081525060200191505060405180910390fd5b5b915091565b6000806000601080549050841015156107f8576040517f08c379a00000000000000000000000000000000000000000000000000000000081526004018080602001828103825260348152602001807f536f6e6720717565756520697320736d616c6c6572207468616e20746865207081526020017f726f766964656420717565756520696e6465782e00000000000000000000000081525060400191505060405180910390fd5b610800610c87565b60108581548110151561080f57fe5b9060005260206000209060050201606060405190810160405290816000820160009054906101000a900460ff1615151515815260200160018201606060405190810160405290816000820160009054906101000a900460ff1615151515815260200160018201548152602001600282015481525050815260200160048201548152505090508060200151602001519350806020015160400151925080604001519150838383935093509350509193909250565b6000809054906101000a900473ffffffffffffffffffffffffffffffffffffffff1681565b6000601080549050111515610964576040517f08c379a00000000000000000000000000000000000000000000000000000000081526004018080602001828103825260148152602001807f536f6e6720717565756520697320656d7074792e00000000000000000000000081525060200191505060405180910390fd5b601060006109729190610cb1565b7fa538bd9092da5ceb859b5d03c8968eabd712937deb995166f2e2578dae2bed1c60405160405180910390a1565b6000601080549050905090565b6000806000905060008090505b601080549050811015610b4d576109cf610c87565b6010828154811015156109de57fe5b9060005260206000209060050201606060405190810160405290816000820160009054906101000a900460ff1615151515815260200160018201606060405190810160405290816000820160009054906101000a900460ff161515151581526020016001820154815260200160028201548152505081526020016004820154815250509050806020015160400151816040015101851015610b3f57600f819080600181540180825580915050906001820390600052602060002090600502016000909192909190915060008201518160000160006101000a81548160ff02191690831515021790555060208201518160010160008201518160000160006101000a81548160ff0219169083151502179055506020820151816001015560408201518160020155505060408201518160040155505050600081602001516040015182604001510190506000868203905080836020015160400151038501945050505b5080806001019150506109ba565b5060106000610b5c9190610cb1565b60008090505b600f80549050811015610c4b576010600f82815481101515610b8057fe5b9060005260206000209060050201908060018154018082558091505090600182039060005260206000209060050201600090919290919091506000820160009054906101000a900460ff168160000160006101000a81548160ff02191690831515021790555060018201816001016000820160009054906101000a900460ff168160000160006101000a81548160ff02191690831515021790555060018201548160010155600282015481600201555050600482015481600401555050508080600101915050610b62565b50600f6000610c5a9190610cb1565b80915050919050565b60606040519081016040528060001515815260200160008152602001600081525090565b60a060405190810160405280600015158152602001610ca4610cd5565b8152602001600081525090565b5080546000825560050290600052602060002090810190610cd29190610cf9565b50565b60606040519081016040528060001515815260200160008152602001600081525090565b610d5c91905b80821115610d5857600080820160006101000a81549060ff021916905560018201600080820160006101000a81549060ff0219169055600182016000905560028201600090555050600482016000905550600501610cff565b5090565b9056fea165627a7a72305820f9fc6da7265a306308fd6aeac5d8b7e21263596048c0d30cad0a37836c318c250029",
  "source": "pragma solidity ^0.5.0;\n\nimport \"./Owned.sol\";\n\ncontract Jukebox is Owned {\n  // --- Contract properties ------------------------------------------------ //\n\n  // --- Pricing --- //\n\n  uint appendSongPrice = 20000000000000000; // wei\n  uint clearSongQueuePrice = 40000000000000000; // wei\n\n  // --- Data structures --- //\n\n  // Song type\n  struct Song {\n    bool initialized;\n    uint id;\n    uint durationSecs;\n  }\n\n  // Queued song type\n  struct QueuedSong {\n    bool initialized;\n    Song song; // The song type\n    uint timestampSecs; // Unix timestamp when it was queued.\n  }\n\n  // --- State --- //\n\n  // Song state\n  Song[4] songsAvailable;\n\n  // Songs currently queued\n  QueuedSong[] nextQueue;\n  QueuedSong[] queue;\n\n  // --- Events --- //\n\n  event Append(uint songId, uint durationSecs, uint timestampSecs);\n  event Clear();\n\n  // --- Constructor -------------------------------------------------------- //\n\n  constructor() public {\n    songsAvailable[0] = Song(true, 0, 242);\n    songsAvailable[1] = Song(true, 1, 262);\n    songsAvailable[2] = Song(true, 2, 168);\n    songsAvailable[3] = Song(true, 3, 337);\n  }\n\n  // --- Business logic ----------------------------------------------------- //\n\n  // --- Read state --- //\n\n  /** Get the current size of the song queue. */\n  function getQueueSize() public view returns (uint) {\n    return queue.length;\n  }\n\n  /** Return data about a song currently in the queue. */\n  function getSongDataByQueueIndex(uint queueIndex)\n    public\n    view\n    returns\n  (uint songId, uint durationSecs, uint timestampSecs) {\n    require(queueIndex < queue.length, \"Song queue is smaller than the provided queue index.\");\n    QueuedSong memory qsong = queue[queueIndex];\n\n    // Extract data from state\n    songId = qsong.song.id;\n    durationSecs = qsong.song.durationSecs;\n    timestampSecs = qsong.timestampSecs;\n\n    return (songId, durationSecs, timestampSecs);\n  }\n\n  /** Return data about a song from its unique ID. */\n  function getSongDataBySongId(uint songId)\n    public\n    view\n    returns\n  (uint id, uint durationSecs) {\n    for (uint i = 0; i < songsAvailable.length; i++) {\n      Song memory song = songsAvailable[i];\n      if (song.id == songId) {\n        id = song.id;\n        durationSecs = song.durationSecs;\n        return (id, durationSecs);\n      }\n    }\n\n    require(false, \"Song data not found.\");\n  }\n\n  /** Get the queue index of the currently playing song. */\n  function getCurrentSongQueueIndex(uint timestampSecs) public view returns (uint) {\n    uint prevDurationSecs = 0;\n\n    // Find the currently playing song by comparing the given timestamp with\n    // queued song timestamps/durations.\n    for (uint i = 0; i < queue.length; i++) {\n      QueuedSong memory qsong = queue[i];\n      if (timestampSecs < qsong.timestampSecs + qsong.song.durationSecs + prevDurationSecs) {\n        return i;\n      }\n      prevDurationSecs += qsong.song.durationSecs;\n    }\n\n    require(false, \"No song is currently playing.\");\n  }\n\n  // --- Mutate state --- //\n\n  /** Prepend a song to the jukebox playlist. */\n  // function prependSongToQueue(uint songId, uint timestampSecs) public {}\n\n  /** Append a song to the jukebox playlist. */\n  function appendSongToQueue(uint songId, uint timestampSecs) public payable {\n    // require(msg.value >= appendSongPrice, \"Adding a song to the queue costs at least 0.02 ETH.\");\n\n    uint prevDurationSecs = reconcileSongQueue(timestampSecs);\n\n    require(queue.length < 5, \"Song queue is full. Wait for the current song to finish or pay to skip.\");\n\n    // Get the song\n    Song memory song;\n    for (uint i = 0; i < songsAvailable.length; i++) {\n      Song memory checkSong = songsAvailable[i];\n      if (checkSong.id == songId) {\n        song = checkSong;\n      }\n    }\n\n    // Queue the song\n    queue.push(QueuedSong(true, song, timestampSecs + prevDurationSecs));\n\n    // Emit append event\n    emit Append(song.id, song.durationSecs, timestampSecs + prevDurationSecs);\n  }\n\n  /** Clear all songs from the queue. */\n  function clearSongQueue() public payable {\n    // require(msg.value >= clearSongQueuePrice, \"Clearing all songs in the queue costs at least 0.04 ETH.\");\n\n    require (queue.length > 0, \"Song queue is empty.\");\n\n    delete queue;\n\n    emit Clear();\n  }\n\n  /** Remove previously played songs from the queue. */\n  function reconcileSongQueue(uint timestampSecs) private returns (uint) {\n    uint prevDurationSecs = 0;\n\n    // Find queued songs that are expired (already played).\n    for (uint i = 0; i < queue.length; i++) {\n      QueuedSong memory qsong = queue[i];\n\n      if (timestampSecs < qsong.timestampSecs + qsong.song.durationSecs) {\n        nextQueue.push(qsong);\n        uint total = qsong.timestampSecs + qsong.song.durationSecs;\n        uint diff = total - timestampSecs;\n        prevDurationSecs += qsong.song.durationSecs - diff;\n      }\n    }\n\n    delete queue;\n\n    for (uint i = 0; i < nextQueue.length; i++) {\n      queue.push(nextQueue[i]);\n    }\n\n    delete nextQueue;\n\n    return prevDurationSecs;\n  }\n}\n",
  "sourcePath": "/Users/ian/dev/jukeblocks/contracts/Jukebox.sol",
  "compiler": {
    "name": "solc",
    "version": "0.5.0+commit.1d4f565a.Emscripten.clang"
  },
  "schemaVersion": "3.0.1",
  "updatedAt": "2019-02-17T06:43:59.566Z",
  "devdoc": {
    "methods": {}
  },
  "userdoc": {
    "methods": {
      "appendSongToQueue(uint256,uint256)": {
        "notice": "Append a song to the jukebox playlist. "
      },
      "clearSongQueue()": {
        "notice": "Clear all songs from the queue. "
      },
      "getCurrentSongQueueIndex(uint256)": {
        "notice": "Get the queue index of the currently playing song. "
      },
      "getQueueSize()": {
        "notice": "Get the current size of the song queue. "
      },
      "getSongDataByQueueIndex(uint256)": {
        "notice": "Return data about a song currently in the queue. "
      },
      "getSongDataBySongId(uint256)": {
        "notice": "Return data about a song from its unique ID. "
      }
    }
  }
}