{
  "contractName": "Jukebox",
  "abi": [
    {
      "constant": true,
      "inputs": [],
      "name": "owner",
      "outputs": [
        {
          "name": "",
          "type": "address"
        }
      ],
      "payable": false,
      "stateMutability": "view",
      "type": "function",
      "signature": "0x8da5cb5b"
    },
    {
      "inputs": [],
      "payable": false,
      "stateMutability": "nonpayable",
      "type": "constructor",
      "signature": "constructor"
    },
    {
      "anonymous": false,
      "inputs": [
        {
          "indexed": false,
          "name": "skippedSongId",
          "type": "uint256"
        }
      ],
      "name": "SongSkip",
      "type": "event",
      "signature": "0x6a923958cd2acf466e1be072810e57a0b38c64a5403cbc052249b3bd6baaf6bb"
    },
    {
      "anonymous": false,
      "inputs": [
        {
          "indexed": false,
          "name": "songId",
          "type": "uint256"
        }
      ],
      "name": "SongPrepend",
      "type": "event",
      "signature": "0x9b587522a6f125a5c4f72ccd493697fbe065b3f49b10d07cda9ef36af5ce31c0"
    },
    {
      "anonymous": false,
      "inputs": [
        {
          "indexed": false,
          "name": "songId",
          "type": "uint256"
        }
      ],
      "name": "SongAppend",
      "type": "event",
      "signature": "0xca5a16c485e3da0c505ae1c27b0223853a3cd369f42a06070c2665330912f402"
    },
    {
      "constant": true,
      "inputs": [],
      "name": "getQueueSize",
      "outputs": [
        {
          "name": "",
          "type": "uint256"
        }
      ],
      "payable": false,
      "stateMutability": "view",
      "type": "function",
      "signature": "0xce348c6f"
    },
    {
      "constant": true,
      "inputs": [
        {
          "name": "queueIndex",
          "type": "uint256"
        }
      ],
      "name": "getSongDataByQueueIndex",
      "outputs": [
        {
          "name": "songId",
          "type": "uint256"
        },
        {
          "name": "durationSecs",
          "type": "uint256"
        },
        {
          "name": "timestampSecs",
          "type": "uint256"
        },
        {
          "name": "isSongCompleted",
          "type": "bool"
        }
      ],
      "payable": false,
      "stateMutability": "view",
      "type": "function",
      "signature": "0x6797a5c3"
    },
    {
      "constant": true,
      "inputs": [
        {
          "name": "songId",
          "type": "uint256"
        }
      ],
      "name": "getSongDataBySongId",
      "outputs": [
        {
          "name": "id",
          "type": "uint256"
        },
        {
          "name": "durationSecs",
          "type": "uint256"
        }
      ],
      "payable": false,
      "stateMutability": "view",
      "type": "function",
      "signature": "0x61b44355"
    },
    {
      "constant": true,
      "inputs": [],
      "name": "getCurrentSongByQueueIndex",
      "outputs": [
        {
          "name": "songQueueIndex",
          "type": "uint256"
        }
      ],
      "payable": false,
      "stateMutability": "view",
      "type": "function",
      "signature": "0x1eb8f36e"
    },
    {
      "constant": false,
      "inputs": [
        {
          "name": "songId",
          "type": "uint256"
        }
      ],
      "name": "prependSongToQueue",
      "outputs": [],
      "payable": false,
      "stateMutability": "nonpayable",
      "type": "function",
      "signature": "0xa9e92855"
    }
  ],
  "bytecode": "0x608060405234801561001057600080fd5b50336000806101000a81548173ffffffffffffffffffffffffffffffffffffffff021916908373ffffffffffffffffffffffffffffffffffffffff160217905550604080519081016040528060008152602001607881525060026000808152602001908152602001600020600082015181600001556020820151816001015590505060408051908101604052806001815260200160788152506002600060018152602001908152602001600020600082015181600001556020820151816001015590505060408051908101604052806002815260200160788152506002600060028152602001908152602001600020600082015181600001556020820151816001015590505060036001819055506000600381905550610982806101356000396000f3fe608060405260043610610078576000357c0100000000000000000000000000000000000000000000000000000000900463ffffffff1680631eb8f36e1461007d57806361b44355146100a85780636797a5c3146100fe5780638da5cb5b14610166578063a9e92855146101bd578063ce348c6f146101f8575b600080fd5b34801561008957600080fd5b50610092610223565b6040518082815260200191505060405180910390f35b3480156100b457600080fd5b506100e1600480360360208110156100cb57600080fd5b8101908080359060200190929190505050610338565b604051808381526020018281526020019250505060405180910390f35b34801561010a57600080fd5b506101376004803603602081101561012157600080fd5b8101908080359060200190929190505050610439565b604051808581526020018481526020018381526020018215151515815260200194505050505060405180910390f35b34801561017257600080fd5b5061017b610573565b604051808273ffffffffffffffffffffffffffffffffffffffff1673ffffffffffffffffffffffffffffffffffffffff16815260200191505060405180910390f35b3480156101c957600080fd5b506101f6600480360360208110156101e057600080fd5b8101908080359060200190929190505050610598565b005b34801561020457600080fd5b5061020d61079d565b6040518082815260200191505060405180910390f35b600080600090505b6003548110156102bd5761023d610901565b60048260058110151561024c57fe5b600302016040805190810160405290816000820160408051908101604052908160008201548152602001600182015481525050815260200160028201548152505090508060000151602001518160200151014210156102af578192505050610335565b50808060010191505061022b565b5060001515610334576040517f08c379a000000000000000000000000000000000000000000000000000000000815260040180806020018281038252601d8152602001807f4e6f20736f6e672069732063757272656e746c7920706c6179696e672e00000081525060200191505060405180910390fd5b5b90565b60008060008090505b6001548110156103bc57610353610922565b6002600083815260200190815260200160002060408051908101604052908160008201548152602001600182015481525050905084816000015114156103ae5780600001519350806020015192508383935093505050610434565b508080600101915050610341565b5060001515610433576040517f08c379a00000000000000000000000000000000000000000000000000000000081526004018080602001828103825260148152602001807f536f6e672064617461206e6f7420666f756e642e00000000000000000000000081525060200191505060405180910390fd5b5b915091565b6000806000806001600503851015156104e0576040517f08c379a00000000000000000000000000000000000000000000000000000000081526004018080602001828103825260348152602001807f536f6e6720717565756520697320736d616c6c6572207468616e20746865207081526020017f726f766964656420717565756520696e6465782e00000000000000000000000081525060400191505060405180910390fd5b6104e8610901565b6004866005811015156104f757fe5b6003020160408051908101604052908160008201604080519081016040529081600082015481526020016001820154815250508152602001600282015481525050905080600001516000015194508060000151602001519350806020015192508383014210159150848484849450945094509450509193509193565b6000809054906101000a900473ffffffffffffffffffffffffffffffffffffffff1681565b6105a06107a7565b6005600354101515610666576040517f08c379a00000000000000000000000000000000000000000000000000000000081526004018080602001828103825260478152602001807f536f6e672071756575652069732066756c6c2e205761697420666f722074686581526020017f2063757272656e7420736f6e6720746f2066696e697368206f7220706179207481526020017f6f20736b69702e0000000000000000000000000000000000000000000000000081525060600191505060405180910390fd5b600060035411156106ea57600060016003540390505b6000811015156106e85760046001820360058110151561069857fe5b600302016004826005811015156106ab57fe5b600302016000820181600001600082015481600001556001820154816001015550506002820154816002015590505080806001900391505061067c565b505b6106f2610922565b6002600083815260200190815260200160002060408051908101604052908160008201548152602001600182015481525050905061072e610901565b6040805190810160405280838152602001428152509050806004600060058110151561075657fe5b600302016000820151816000016000820151816000015560208201518160010155505060208201518160020155905050600360008154809291906001019190505550505050565b6000600354905090565b600080905060008090505b600354811015610857576107c4610901565b6004826005811015156107d357fe5b6003020160408051908101604052908160008201604080519081016040529081600082015481526020016001820154815250508152602001600282015481525050905080600001516020015181602001510142101515610849578280600101935050600360008154809291906001900391905055505b5080806001019150506107b2565b5060008090505b818110156108fd57600482820160058110151561087757fe5b6003020160048260058110151561088a57fe5b600302016000820181600001600082015481600001556001820154816001015550506002820154816002015590505060048282016005811015156108ca57fe5b6003020160008082016000808201600090556001820160009055505060028201600090555050808060010191505061085e565b5050565b60606040519081016040528061091561093c565b8152602001600081525090565b604080519081016040528060008152602001600081525090565b60408051908101604052806000815260200160008152509056fea165627a7a72305820c5d142e6b7a0110d2a295170a95fa93c1f263541cbdf3e85e4ec5fe13ad8061e0029",
  "source": "pragma solidity ^0.5.0;\n\nimport \"./Owned.sol\";\n\ncontract Jukebox is Owned {\n  // --- Contract properties ------------------------------------------------ //\n\n  // --- Data structures --- //\n\n  // Song type\n  struct Song {\n    uint id;\n    uint durationSecs;\n  }\n\n  // Queued song type\n  struct QueuedSong {\n    Song song; // The song type\n    uint timestampSecs; // Unix timestamp when it was queued.\n  }\n\n  // --- State --- //\n\n  // Song state\n  uint numSongs;\n  mapping (uint => Song) songsAvailable;\n\n  // Songs currently queued\n  uint queueSize;\n  QueuedSong[5] queue;\n\n  // --- Events --- //\n\n  event SongSkip(uint skippedSongId);\n  event SongPrepend(uint songId);\n  event SongAppend(uint songId);\n\n  // --- Constructor -------------------------------------------------------- //\n\n  constructor() public {\n    songsAvailable[0] = Song(0, 120);\n    songsAvailable[1] = Song(1, 120);\n    songsAvailable[2] = Song(2, 120);\n    numSongs = 3;\n\n    queueSize = 0;\n  }\n\n  // --- Business logic ----------------------------------------------------- //\n\n  // --- Getters --- //\n\n  /** Get the current size of the song queue. */\n  function getQueueSize() public view returns (uint) {\n    return queueSize;\n  }\n\n  /** Return data about a song currently in the queue. */\n  function getSongDataByQueueIndex(uint queueIndex)\n    public\n    view\n    returns\n  (uint songId, uint durationSecs, uint timestampSecs, bool isSongCompleted) {\n    require(queueIndex < queue.length - 1, \"Song queue is smaller than the provided queue index.\");\n    QueuedSong memory qsong = queue[queueIndex];\n\n    // Extract data from state\n    songId = qsong.song.id;\n    durationSecs = qsong.song.durationSecs;\n    timestampSecs = qsong.timestampSecs;\n    isSongCompleted = block.timestamp >= timestampSecs + durationSecs;\n\n    return (songId, durationSecs, timestampSecs, isSongCompleted);\n  }\n\n  /** Return data about a song from its unique ID. */\n  function getSongDataBySongId(uint songId)\n    public\n    view\n    returns\n  (uint id, uint durationSecs) {\n    for (uint i = 0; i < numSongs; i++) {\n      Song memory song = songsAvailable[i];\n      if (song.id == songId) {\n        id = song.id;\n        durationSecs = song.durationSecs;\n        return (id, durationSecs);\n      }\n    }\n\n    require(false, \"Song data not found.\");\n  }\n\n  /**\n   * Get the queue index of the currently playing song.\n   */\n  function getCurrentSongByQueueIndex() public view returns (uint songQueueIndex) {\n    for (uint i = 0; i < queueSize; i++) {\n      QueuedSong memory qsong = queue[i];\n      if (block.timestamp < qsong.timestampSecs + qsong.song.durationSecs) {\n        return i;\n      }\n    }\n\n    require(false, \"No song is currently playing.\");\n  }\n\n  // --- State updates --- //\n\n  /** Prepend a song to the jukebox playlist. */\n  function prependSongToQueue(uint songId) public {\n    reconcileSongQueue();\n\n    require(queueSize < 5, \"Song queue is full. Wait for the current song to finish or pay to skip.\");\n\n    if (queueSize > 0) {\n      for (uint i = queueSize - 1; i >= 0; i--) {\n        queue[i] = queue[i - 1];\n      }\n    }\n\n    Song memory song = songsAvailable[songId];\n    QueuedSong memory qsong = QueuedSong(song, block.timestamp);\n    queue[0] = qsong;\n\n    queueSize++;\n  }\n\n  /** Append a song to the jukebox playlist. */\n  // function appendSongToQueue(uint songId) public payable {}\n\n  /** Skip the currently playing song. */\n  // function skipSong() public {}\n\n  /** Remove currently playing song from the queue. */\n  function reconcileSongQueue() private {\n    uint numSongsRemoved = 0;\n\n    for (uint i = 0; i < queueSize; i++) {\n      QueuedSong memory qsong = queue[i];\n      if (block.timestamp >= qsong.timestampSecs + qsong.song.durationSecs) {\n        numSongsRemoved++;\n        queueSize--;\n      }\n    }\n\n    for (uint i = 0; i < numSongsRemoved; i++) {\n      queue[i] = queue[i + numSongsRemoved];\n      delete queue[i + numSongsRemoved];\n    }\n  }\n}\n",
  "sourcePath": "/Users/ian/dev/jukeblocks/contracts/Jukebox.sol",
  "compiler": {
    "name": "solc",
    "version": "0.5.0+commit.1d4f565a.Emscripten.clang"
  },
  "schemaVersion": "3.0.1",
  "updatedAt": "2019-02-15T20:47:13.846Z",
  "devdoc": {
    "methods": {}
  },
  "userdoc": {
    "methods": {
      "getCurrentSongByQueueIndex()": {
        "notice": "Get the queue index of the currently playing song."
      },
      "getQueueSize()": {
        "notice": "Get the current size of the song queue. "
      },
      "getSongDataByQueueIndex(uint256)": {
        "notice": "Return data about a song currently in the queue. "
      },
      "getSongDataBySongId(uint256)": {
        "notice": "Return data about a song from its unique ID. "
      },
      "prependSongToQueue(uint256)": {
        "notice": "Prepend a song to the jukebox playlist. "
      }
    }
  }
}