{
  "contractName": "Jukebox",
  "abi": [
    {
      "inputs": [],
      "payable": false,
      "stateMutability": "nonpayable",
      "type": "constructor",
      "signature": "constructor"
    },
    {
      "anonymous": false,
      "inputs": [
        {
          "indexed": false,
          "name": "skippedSongId",
          "type": "uint256"
        }
      ],
      "name": "SongSkip",
      "type": "event",
      "signature": "0x6a923958cd2acf466e1be072810e57a0b38c64a5403cbc052249b3bd6baaf6bb"
    },
    {
      "anonymous": false,
      "inputs": [
        {
          "indexed": false,
          "name": "songId",
          "type": "uint256"
        }
      ],
      "name": "SongPrepend",
      "type": "event",
      "signature": "0x9b587522a6f125a5c4f72ccd493697fbe065b3f49b10d07cda9ef36af5ce31c0"
    },
    {
      "anonymous": false,
      "inputs": [
        {
          "indexed": false,
          "name": "songId",
          "type": "uint256"
        }
      ],
      "name": "SongAppend",
      "type": "event",
      "signature": "0xca5a16c485e3da0c505ae1c27b0223853a3cd369f42a06070c2665330912f402"
    },
    {
      "constant": true,
      "inputs": [],
      "name": "getQueueSize",
      "outputs": [
        {
          "name": "",
          "type": "uint256"
        }
      ],
      "payable": false,
      "stateMutability": "view",
      "type": "function",
      "signature": "0xce348c6f"
    },
    {
      "constant": true,
      "inputs": [
        {
          "name": "queueIndex",
          "type": "uint256"
        }
      ],
      "name": "getSongDataByQueueIndex",
      "outputs": [
        {
          "name": "songId",
          "type": "uint256"
        },
        {
          "name": "durationSecs",
          "type": "uint256"
        },
        {
          "name": "timestampSecs",
          "type": "uint256"
        },
        {
          "name": "isSongCompleted",
          "type": "bool"
        }
      ],
      "payable": false,
      "stateMutability": "view",
      "type": "function",
      "signature": "0x6797a5c3"
    },
    {
      "constant": true,
      "inputs": [
        {
          "name": "songId",
          "type": "uint256"
        }
      ],
      "name": "getSongDataBySongId",
      "outputs": [
        {
          "name": "id",
          "type": "uint256"
        },
        {
          "name": "durationSecs",
          "type": "uint256"
        }
      ],
      "payable": false,
      "stateMutability": "view",
      "type": "function",
      "signature": "0x61b44355"
    },
    {
      "constant": true,
      "inputs": [],
      "name": "getCurrentSongQueueIndex",
      "outputs": [
        {
          "name": "songQueueIndex",
          "type": "uint256"
        }
      ],
      "payable": false,
      "stateMutability": "view",
      "type": "function",
      "signature": "0x8b75dee1"
    },
    {
      "constant": false,
      "inputs": [
        {
          "name": "songId",
          "type": "uint256"
        }
      ],
      "name": "prependSongToQueue",
      "outputs": [],
      "payable": true,
      "stateMutability": "payable",
      "type": "function",
      "signature": "0xa9e92855"
    },
    {
      "constant": false,
      "inputs": [
        {
          "name": "songId",
          "type": "uint256"
        }
      ],
      "name": "appendSongToQueue",
      "outputs": [],
      "payable": true,
      "stateMutability": "payable",
      "type": "function",
      "signature": "0x6941e8ed"
    },
    {
      "constant": false,
      "inputs": [],
      "name": "skipSong",
      "outputs": [],
      "payable": false,
      "stateMutability": "nonpayable",
      "type": "function",
      "signature": "0x8ad966de"
    }
  ],
  "bytecode": "0x6080604052600060155534801561001557600080fd5b50604080519081016040528060008152602001607881525060008060038110151561003c57fe5b60020201600082015181600001556020820151816001015590505060408051908101604052806001815260200160788152506000600160038110151561007e57fe5b6002020160008201518160000155602082015181600101559050506040805190810160405280600281526020016078815250600060026003811015156100c057fe5b6002020160008201518160000155602082015181600101559050506105f3806100ea6000396000f3fe608060405260043610610083576000357c0100000000000000000000000000000000000000000000000000000000900463ffffffff16806361b44355146100885780636797a5c3146100de5780636941e8ed146101465780638ad966de146101745780638b75dee11461018b578063a9e92855146101b6578063ce348c6f146101e4575b600080fd5b34801561009457600080fd5b506100c1600480360360208110156100ab57600080fd5b810190808035906020019092919050505061020f565b604051808381526020018281526020019250505060405180910390f35b3480156100ea57600080fd5b506101176004803603602081101561010157600080fd5b810190808035906020019092919050505061030f565b604051808581526020018481526020018381526020018215151515815260200194505050505060405180910390f35b6101726004803603602081101561015c57600080fd5b810190808035906020019092919050505061044a565b005b34801561018057600080fd5b5061018961044d565b005b34801561019757600080fd5b506101a061044f565b6040518082815260200191505060405180910390f35b6101e2600480360360208110156101cc57600080fd5b8101908080359060200190929190505050610565565b005b3480156101f057600080fd5b506101f9610568565b6040518082815260200191505060405180910390f35b60008060008090505b600381101561029257610229610572565b60008260038110151561023857fe5b600202016040805190810160405290816000820154815260200160018201548152505090508481600001511415610284578060000151935080602001519250838393509350505061030a565b508080600101915050610218565b5060001515610309576040517f08c379a00000000000000000000000000000000000000000000000000000000081526004018080602001828103825260148152602001807f536f6e672064617461206e6f7420666f756e642e00000000000000000000000081525060200191505060405180910390fd5b5b915091565b600080600080600160155403851015156103b7576040517f08c379a000000000000000000000000000000000000000000000000000000000815260040180806020018281038252602e8152602001807f536f6e6720717565756520697320736d616c6c6572207468616e20746865207081526020017f726f766964656420696e6465782e00000000000000000000000000000000000081525060400191505060405180910390fd5b6103bf61058c565b6006866005811015156103ce57fe5b6003020160408051908101604052908160008201604080519081016040529081600082015481526020016001820154815250508152602001600282015481525050905080600001516000015194508060000151602001519350806020015192508383014210159150848484849450945094509450509193509193565b50565b565b600080600090505b6015548110156104ea5761046961058c565b60068260058110151561047857fe5b60030201604080519081016040529081600082016040805190810160405290816000820154815260200160018201548152505081526020016002820154815250509050806000015160200151816020015101421015156104dc578192505050610562565b508080600101915050610457565b5060001515610561576040517f08c379a000000000000000000000000000000000000000000000000000000000815260040180806020018281038252601d8152602001807f4e6f20736f6e672069732063757272656e746c7920706c6179696e672e00000081525060200191505060405180910390fd5b5b90565b50565b6000601554905090565b604080519081016040528060008152602001600081525090565b6060604051908101604052806105a06105ad565b8152602001600081525090565b60408051908101604052806000815260200160008152509056fea165627a7a72305820f139d0341308b50d120336949314d422c236e271212506c5fa922f3f5e6cd0af0029",
  "source": "pragma solidity ^0.5.0;\n\ncontract Jukebox {\n  // --- Contract properties ------------------------------------------------ //\n\n  // --- Data structures --- //\n\n  // Song type\n  struct Song {\n    uint id;\n    uint durationSecs;\n  }\n\n  // Queued song type\n  struct QueuedSong {\n    Song song; // The song type\n    uint timestampSecs; // Unix timestamp when it was queued.\n  }\n\n  // --- State --- //\n\n  // Song state\n  Song[3] songsAvailable;\n\n  // Songs currently queued\n  QueuedSong[5] queue;\n  uint queueSize = 0;\n\n  // --- Events --- //\n\n  event SongSkip(uint skippedSongId);\n  event SongPrepend(uint songId);\n  event SongAppend(uint songId);\n\n  // --- Constructor -------------------------------------------------------- //\n\n  constructor() public {\n    songsAvailable[0] = Song(0, 120);\n    songsAvailable[1] = Song(1, 120);\n    songsAvailable[2] = Song(2, 120);\n  }\n\n  // --- Business logic ----------------------------------------------------- //\n\n  // --- Getters --- //\n\n  /** Get the current size of the song queue. */\n  function getQueueSize() public view returns (uint) {\n    return queueSize;\n  }\n\n  /** Return data about a song currently in the queue. */\n  function getSongDataByQueueIndex(uint queueIndex)\n    public\n    view\n    returns\n  (uint songId, uint durationSecs, uint timestampSecs, bool isSongCompleted) {\n    require(queueIndex < queueSize - 1, \"Song queue is smaller than the provided index.\");\n    QueuedSong memory qsong = queue[queueIndex];\n\n    // Extract data from state\n    songId = qsong.song.id;\n    durationSecs = qsong.song.durationSecs;\n    timestampSecs = qsong.timestampSecs;\n    isSongCompleted = block.timestamp >= timestampSecs + durationSecs;\n\n    return (songId, durationSecs, timestampSecs, isSongCompleted);\n  }\n\n  /** Return data about a song from its unique ID. */\n  function getSongDataBySongId(uint songId)\n    public\n    view\n    returns\n  (uint id, uint durationSecs) {\n    for (uint i = 0; i < songsAvailable.length; i++) {\n      Song memory song = songsAvailable[i];\n      if (song.id == songId) {\n        id = song.id;\n        durationSecs = song.durationSecs;\n        return (id, durationSecs);\n      }\n    }\n\n    require(false, \"Song data not found.\");\n  }\n\n  /**\n   * Get the queue index of the currently playing song.\n   */\n  function getCurrentSongQueueIndex() public view returns (uint songQueueIndex) {\n    for (uint i = 0; i < queueSize; i++) {\n      QueuedSong memory qsong = queue[i];\n      if (block.timestamp >= qsong.timestampSecs + qsong.song.durationSecs) {\n        return i;\n      }\n    }\n\n    require(false, \"No song is currently playing.\");\n  }\n\n  // --- State updates --- //\n\n  /** Prepend a song to the jukebox playlist. */\n  function prependSongToQueue(uint songId) public payable {}\n\n  /** Append a song to the jukebox playlist. */\n  function appendSongToQueue(uint songId) public payable {}\n\n  /** Skip the currently playing song. */\n  function skipSong() public {}\n\n  /** Remove currently playing song from the queue. */\n  function reconcileSongQueue() private {}\n}\n",
  "sourcePath": "/Users/ian/dev/jukeblocks/contracts/Jukebox.sol",
  "compiler": {
    "name": "solc",
    "version": "0.5.0+commit.1d4f565a.Emscripten.clang"
  },
  "schemaVersion": "3.0.1",
  "updatedAt": "2019-02-13T23:06:06.293Z",
  "devdoc": {
    "methods": {}
  },
  "userdoc": {
    "methods": {
      "appendSongToQueue(uint256)": {
        "notice": "Append a song to the jukebox playlist. "
      },
      "getCurrentSongQueueIndex()": {
        "notice": "Get the queue index of the currently playing song."
      },
      "getQueueSize()": {
        "notice": "Get the current size of the song queue. "
      },
      "getSongDataByQueueIndex(uint256)": {
        "notice": "Return data about a song currently in the queue. "
      },
      "getSongDataBySongId(uint256)": {
        "notice": "Return data about a song from its unique ID. "
      },
      "prependSongToQueue(uint256)": {
        "notice": "Prepend a song to the jukebox playlist. "
      },
      "skipSong()": {
        "notice": "Skip the currently playing song. "
      }
    }
  }
}