{
  "contractName": "Owned",
  "abi": [
    {
      "constant": true,
      "inputs": [],
      "name": "owner",
      "outputs": [
        {
          "name": "",
          "type": "address"
        }
      ],
      "payable": false,
      "stateMutability": "view",
      "type": "function"
    },
    {
      "inputs": [],
      "payable": false,
      "stateMutability": "nonpayable",
      "type": "constructor"
    }
  ],
  "bytecode": "0x608060405234801561001057600080fd5b50336000806101000a81548173ffffffffffffffffffffffffffffffffffffffff021916908373ffffffffffffffffffffffffffffffffffffffff16021790555060e98061005f6000396000f3fe608060405260043610603f576000357c0100000000000000000000000000000000000000000000000000000000900463ffffffff1680638da5cb5b146044575b600080fd5b348015604f57600080fd5b5060566098565b604051808273ffffffffffffffffffffffffffffffffffffffff1673ffffffffffffffffffffffffffffffffffffffff16815260200191505060405180910390f35b6000809054906101000a900473ffffffffffffffffffffffffffffffffffffffff168156fea165627a7a72305820f72c2f022a17bc8d31778b7db53c0d0af68aacf66e396367f615a817e71ac70d0029",
  "source": "pragma solidity ^0.5.0;\n\ncontract Owned {\n  constructor() public { owner = msg.sender; }\n  address public owner;\n\n  modifier onlyOwner {\n    require(\n      msg.sender == owner,\n      \"Only owner can call this function.\"\n    );\n    _;\n  }\n}\n",
  "sourcePath": "/Users/ian/dev/jukeblocks/contracts/Owned.sol",
  "compiler": {
    "name": "solc",
    "version": "0.5.0+commit.1d4f565a.Emscripten.clang"
  },
  "schemaVersion": "3.0.1",
  "updatedAt": "2019-02-15T20:44:48.717Z",
  "devdoc": {
    "methods": {}
  },
  "userdoc": {
    "methods": {}
  }
}